{
  "contractName": "CrowdFundingWithDeadline",
  "abi": [
    {
      "inputs": [
        {
          "internalType": "string",
          "name": "_contractName",
          "type": "string"
        },
        {
          "internalType": "uint256",
          "name": "_targetAmountEth",
          "type": "uint256"
        },
        {
          "internalType": "uint256",
          "name": "_durationInMin",
          "type": "uint256"
        },
        {
          "internalType": "address payable",
          "name": "_beneficiary",
          "type": "address"
        }
      ],
      "stateMutability": "nonpayable",
      "type": "constructor"
    },
    {
      "inputs": [],
      "name": "beneficiary",
      "outputs": [
        {
          "internalType": "address payable",
          "name": "",
          "type": "address"
        }
      ],
      "stateMutability": "view",
      "type": "function"
    },
    {
      "inputs": [],
      "name": "fundingDeadline",
      "outputs": [
        {
          "internalType": "uint256",
          "name": "",
          "type": "uint256"
        }
      ],
      "stateMutability": "view",
      "type": "function"
    },
    {
      "inputs": [],
      "name": "name",
      "outputs": [
        {
          "internalType": "string",
          "name": "",
          "type": "string"
        }
      ],
      "stateMutability": "view",
      "type": "function"
    },
    {
      "inputs": [],
      "name": "status",
      "outputs": [
        {
          "internalType": "enum CrowdFundingWithDeadline.Status",
          "name": "",
          "type": "uint8"
        }
      ],
      "stateMutability": "view",
      "type": "function"
    },
    {
      "inputs": [],
      "name": "targetAmount",
      "outputs": [
        {
          "internalType": "uint256",
          "name": "",
          "type": "uint256"
        }
      ],
      "stateMutability": "view",
      "type": "function"
    }
  ],
  "bytecode": "0x608060405234801561001057600080fd5b50604051610742380380610742833981810160405281019061003291906101fd565b83600090805190602001906100489291906100d4565b50670de0b6b3a76400008302600181905550603c8202420160028190555080600360006101000a81548173ffffffffffffffffffffffffffffffffffffffff021916908373ffffffffffffffffffffffffffffffffffffffff1602179055506000600360146101000a81548160ff021916908360038111156100c657fe5b021790555050505050610378565b828054600181600116156101000203166002900490600052602060002090601f01602090048101928261010a5760008555610151565b82601f1061012357805160ff1916838001178555610151565b82800160010185558215610151579182015b82811115610150578251825591602001919060010190610135565b5b50905061015e9190610162565b5090565b5b8082111561017b576000816000905550600101610163565b5090565b60008151905061018e8161034a565b92915050565b600082601f8301126101a557600080fd5b81516101b86101b3826102a9565b610278565b915080825260208301602083018583830111156101d457600080fd5b6101df838284610315565b50505092915050565b6000815190506101f781610361565b92915050565b6000806000806080858703121561021357600080fd5b600085015167ffffffffffffffff81111561022d57600080fd5b61023987828801610194565b945050602061024a878288016101e8565b935050604061025b878288016101e8565b925050606061026c8782880161017f565b91505092959194509250565b6000604051905081810181811067ffffffffffffffff8211171561029f5761029e610348565b5b8060405250919050565b600067ffffffffffffffff8211156102c4576102c3610348565b5b601f19601f8301169050602081019050919050565b60006102e4826102eb565b9050919050565b600073ffffffffffffffffffffffffffffffffffffffff82169050919050565b6000819050919050565b60005b83811015610333578082015181840152602081019050610318565b83811115610342576000848401525b50505050565bfe5b610353816102d9565b811461035e57600080fd5b50565b61036a8161030b565b811461037557600080fd5b50565b6103bb806103876000396000f3fe608060405234801561001057600080fd5b50600436106100575760003560e01c806306fdde031461005c578063200d2ed21461007a57806338af3eed14610098578063796b23bb146100b6578063953b8fb8146100d4575b600080fd5b6100646100f2565b6040516100719190610271565b60405180910390f35b610082610190565b60405161008f9190610256565b60405180910390f35b6100a06101a3565b6040516100ad919061023b565b60405180910390f35b6100be6101c9565b6040516100cb9190610293565b60405180910390f35b6100dc6101cf565b6040516100e99190610293565b60405180910390f35b60008054600181600116156101000203166002900480601f0160208091040260200160405190810160405280929190818152602001828054600181600116156101000203166002900480156101885780601f1061015d57610100808354040283529160200191610188565b820191906000526020600020905b81548152906001019060200180831161016b57829003601f168201915b505050505081565b600360149054906101000a900460ff1681565b600360009054906101000a900473ffffffffffffffffffffffffffffffffffffffff1681565b60025481565b60015481565b6101de816102ca565b82525050565b6101ed81610319565b82525050565b60006101fe826102ae565b61020881856102b9565b935061021881856020860161032b565b61022181610360565b840191505092915050565b6102358161030f565b82525050565b600060208201905061025060008301846101d5565b92915050565b600060208201905061026b60008301846101e4565b92915050565b6000602082019050818103600083015261028b81846101f3565b905092915050565b60006020820190506102a8600083018461022c565b92915050565b600081519050919050565b600082825260208201905092915050565b60006102d5826102ef565b9050919050565b60008190506102ea82610371565b919050565b600073ffffffffffffffffffffffffffffffffffffffff82169050919050565b6000819050919050565b6000610324826102dc565b9050919050565b60005b8381101561034957808201518184015260208101905061032e565b83811115610358576000848401525b50505050565bfe5b6000601f19601f8301169050919050565b600481106103825761038161035e565b5b5056fea2646970667358221220b5e8d6d881c0c79a5a18d44ac4bfa4361e1dc1aa47022764378550299ac578f364736f6c63430007040033",
  "immutableReferences": {},
  "source": "// SPDX-License-Identifier: GPL-3.0\npragma solidity ^0.7.0;\npragma experimental ABIEncoderV2;\n\ncontract CrowdFundingWithDeadline {\n  enum Status {Ongoing, Failed, Succeeded, PaidOut} // internally recorded as 0,1,2,3 \n\n  string public name;\n  uint256 public targetAmount;\n  uint256 public fundingDeadline;\n  address payable public beneficiary;\n  Status public status;\n\n  constructor(string memory _contractName, uint _targetAmountEth, uint _durationInMin, address payable _beneficiary) {\n    name = _contractName;\n    targetAmount = _targetAmountEth * 1 ether; // convert ether to wei, and save as wei\n    fundingDeadline = block.timestamp + (_durationInMin * 1 minutes);\n    beneficiary = _beneficiary;\n    status = Status.Ongoing;\n  }\n}\n",
  "sourcePath": "/mnt/e/codeD/GitHub/Suedo/HelloEth/helloTruffle/contracts/CrowdFunder/CrowdFundWithDeadline.sol",
  "compiler": {
    "name": "solc",
    "version": "0.7.4+commit.3f05b770.Linux.g++"
  },
  "schemaVersion": "3.3.1",
  "updatedAt": "2020-11-08T12:33:30.034Z",
  "devdoc": {
    "kind": "dev",
    "methods": {},
    "version": 1
  },
  "userdoc": {
    "kind": "user",
    "methods": {},
    "version": 1
  }
}